:100000000C9434000C9451000C9400060C94510094
:100010000C9451000C9451000C9451000C9451001C
:100020000C9451000C9451000C9451000C9451000C
:100030000C9451000C9471060C9451000C945100D6
:100040000C9451000C9451000C9451000C945100EC
:100050000C9451000C9451000C9451000C945100DC
:100060000C9451000C94510011241FBECFEFD8E026
:10007000DEBFCDBF11E0A0E0B1E0E0EAF0E102C0F8
:1000800005900D92A230B107D9F722E0A2E0B1E0CD
:1000900001C01D92AB3DB207E1F70E9450030C94E2
:1000A0004E080C940000CF93DF93CDB7DEB700006D
:1000B000FECFCF93DF930F92CDB7DEB789838981CF
:1000C000282F30E080E090E8AC0102C056954795BB
:1000D0002A95E2F79A018091870190918801822BFD
:1000E000932B909388018093870100000F90DF91FC
:1000F000CF910895CF93DF930F92CDB7DEB7898369
:100100008981282F30E080E090E802C0969587959D
:100110002A95E2F79C012095309580918701909176
:1001200088018223932390938801809387010000A4
:100130000F90DF91CF910895CF93DF930F92CDB7BA
:10014000DEB789838981282F30E080E090E8AC0118
:1001500002C0569547952A95E2F79A01809187014A
:10016000909188018223932321E0009709F420E0F5
:10017000822F0F90DF91CF910895EF92FF920F930E
:100180001F93CF93DF93CDB7DEB712E3E12EF12CAF
:1001900000E010E029E831E043E550E06FE08BEB50
:1001A00091E00E94AF01109203011092020110929F
:1001B0000501109204010E946A0480E090E0DF9142
:1001C000CF911F910F91FF90EF900895CF93DF9300
:1001D0000F92CDB7DEB7198206C089810E945900FF
:1001E00089818F5F89838091860199819817A8F30F
:1001F00080918601682F86E091E00E9439040E9478
:1002000027040E9464020E94300400000F90DF91D6
:10021000CF910895CF93DF9300D000D0CDB7DEB754
:1002200069837A838B839C830E9427042091020137
:100230003091030189819A81AB81BC81F90182836C
:100240009383A483B583809100010E947A000E9469
:1002500064020E94300400000F900F900F900F90E6
:10026000DF91CF910895CF93DF9300D000D00F920C
:10027000CDB7DEB79D838C8380918601882F90E077
:10028000880F991F8A5F9E4F2C813D81FC0131832D
:10029000208380918601898354C08981082E000CB7
:1002A000990B880F991F8A5F9E4FFC018081918175
:1002B000FC0126818981082E000C990B0197880F7B
:1002C000991F8A5F9E4FFC0180819181FC0186818C
:1002D0002817A0F58981082E000C990B880F991F0B
:1002E0008A5F9E4FFC01808191819B838A838981F3
:1002F000082E000C990B9C01215031098981082E90
:10030000000C990B220F331F2A5F3E4FF901208109
:100310003181880F991F8A5F9E4FFC0131832083B2
:100320008981082E000C990B0197880F991F8A5F0D
:100330009E4F2A813B81FC0131832083898181503A
:100340008983898181300CF0A8CF000000000F90D4
:100350000F900F900F900F90DF91CF910895EF9233
:10036000FF920F931F93CF93DF93CDB7DEB72B97F9
:100370000FB6F894DEBF0FBECDBF9A8389836B831F
:100380005D834C833F832E83E886F9860A871B872B
:1003900080918601803219F481E090E02CC0E981DF
:1003A000FA8188859985AA85BB854E815F816C819C
:1003B0007D818C019D01CF010E94AB0489819A81CE
:1003C0002B81FC0126838B81882F90E09C01285B88
:1003D0003E4FF90120812F5F885B9E4FFC012083F7
:1003E00089819A810E943301809186018F5F809379
:1003F000860180E090E02B960FB6F894DEBF0FBE2A
:10040000CDBFDF91CF911F910F91FF90EF90089595
:10041000CF93DF930F92CDB7DEB7198243C08981A6
:10042000882F90E0880F991F8A5F9E4FFC01808182
:100430009181FC0182819381A481B5810097A105FE
:10044000B10569F18981882F90E0880F991F8A5F33
:100450009E4FFC0120813181F90182819381A48129
:10046000B5810197A109B109F90182839383A4831E
:10047000B5838981882F90E0880F991F8A5F9E4FEE
:10048000FC0180819181FC0182819381A481B581ED
:100490000097A105B10519F489810E94590089814D
:1004A0008F5F89838981282F30E080918601882F92
:1004B00090E00197281739070CF4B1CF0000000035
:1004C0000F90DF91CF910895CF93DF9300D000D0AC
:1004D00000D00F92CDB7DEB780918701909188014F
:1004E0000E9421078D838D81282F30E08091860125
:1004F000882F90E0019728173907C1F48D81882F44
:1005000090E0880F991F8A5F9E4FFC018081918146
:100510009093050180930401809100018093010173
:100520008D81809300010E94160472C019828FEFA2
:100530008A838FEF8B838D818C834DC08C81882F34
:1005400090E0880F991F8A5F9E4FFC018081918106
:10055000FC0186819A81981779F08C81882F90E030
:10056000880F991F8A5F9E4FFC0180819181FC0159
:1005700086818A838C818B838A81882F90E0895938
:100580009E4FFC0180818E839B818E81890F8F839A
:100590008E818F5F8E838A81882F90E0885B9E4F4B
:1005A000FC0190818A81282F30E08E81692F0E9482
:1005B0001507892F482FC90189599E4FFC01408397
:1005C0008F810E949C00811519F08F81898309C059
:1005D0008C818F5F8C83809186019C81981708F4B1
:1005E000ADCF8981882F90E0880F991F8A5F9E4F39
:1005F000FC01808191819093050180930401809199
:100600000001809301018981809300010E941604FA
:1006100027960FB6F894DEBF0FBECDBFDF91CF9106
:100620000895CF93DF93CDB7DEB785E290E0FC016C
:10063000308185E290E020E12327FC01208360EDFA
:1006400077E080E090E00E940A01EFCFCF93DF9344
:10065000CDB7DEB785E290E0FC01308185E290E025
:1006600028E02327FC01208368EE73E080E090E01F
:100670000E940A01EFCFCF93DF93CDB7DEB785E2BB
:1006800090E0FC01308185E290E024E02327FC012A
:10069000208364EF71E080E090E00E940A01EFCFD8
:1006A000EF92FF920F931F93CF93DF93CDB7DEB7F7
:1006B0002E970FB6F894DEBF0FBECDBFF89484E23C
:1006C00090E0FC01208184E290E02C63FC01208317
:1006D0000E94BD0010E4E12EF12C00E010E022ECBD
:1006E00031E041E153E061E082E092E00E94AF013D
:1006F00010E4E12EF12C00E010E029E032E046E2C7
:1007000053E061E089E492E00E94AF0110E4E12E41
:10071000F12C00E010E020E532E04BE353E061E033
:1007200080E992E00E94AF010E94E600789480E0A8
:1007300090E0A8ECB2E489839A83AB83BC8320E089
:1007400030E04AE755E469817A818B819C810E947F
:10075000B907DC01CB018D839E83AF83B88720E08E
:1007600030E040E85FE36D817E818F8198850E9453
:10077000330781152CF481E090E09A87898740C087
:1007800020E03FEF4FE757E46D817E818F819885B0
:100790000E94B407813054F120E030E040E251E49F
:1007A00069817A818B819C810E94B907DC01CB0130
:1007B000BC01CD010E943807DC01CB019A878987F3
:1007C00010C080E991E09C878B878B859C85019781
:1007D000F1F79C878B87000089859A8501979A8716
:1007E000898789859A85009761F715C06D817E811B
:1007F0008F8198850E943807DC01CB019A87898711
:1008000089859A859E878D878D859E850197F1F7CD
:100810009E878D87000085E290E0FC01308185E2B3
:1008200090E020E22327FC01208381CFCF93DF9348
:10083000CDB7DEB78BE290E0FC0120818BE290E047
:100840002860FC0120830000DF91CF910895CF93B1
:10085000DF93CDB7DEB7F8940000DF91CF91089514
:10086000CF93DF93CDB7DEB778940000DF91CF91BF
:100870000895CF93DF9300D000D0CDB7DEB79B8330
:100880008A836C83198219C08981882F90E0880F30
:10089000991F2A813B81820F931FFC0120813181A6
:1008A0008981882F90E0880F991F89569D4FFC0100
:1008B0003183208389818F5F898399818C81981707
:1008C00018F3000000000F900F900F900F90DF9131
:1008D000CF910895CF93DF93CDB7DEB784E890E052
:1008E00021EC3FEFFC013183208381E890E024E09C
:1008F000FC01208380E890E0FC0110828FE690E00C
:1009000021E0FC0120838FE590E0FC0120818FE550
:1009100090E02068FC01208389E690E0FC012081C2
:1009200089E690E02C60FC0120838DE390E0FC01DF
:1009300020818DE390E02260FC0120838AE290E038
:10094000FC0120818AE290E02860FC012083000005
:10095000DF91CF9108950F931F93CF93DF93CDB77E
:10096000DEB72C970FB6F894DEBF0FBECDBF9C83C9
:100970008B837E836D8358874F8309871A872B87E4
:100980003C878F819885AC01990F660B770B898521
:100990009A85AB85BC85840F951FA61FB71F01974D
:1009A000A109B109689412F8B695A795979587950E
:1009B0001694D1F7880F991F880F991F880F991FD8
:1009C0009C018B819C81FC01318320838D819E81E0
:1009D0009A8389838B819C81FC018081918129810B
:1009E000FC0120838B819C81FC01808191819C0191
:1009F000215031098B819C81FC01318320838981C5
:100A00009A81292F33278B819C81FC0180819181E0
:100A1000FC0120838B819C81FC01808191819C0160
:100A2000215031098B819C81FC01318320838B8192
:100A30009C81FC0180819181FC0110828B819C81D1
:100A4000FC01808191819C01215031098B819C8125
:100A5000FC01318320838B819C81FC018081918109
:100A600020E8FC0120838B819C81FC0180819181A5
:100A70009C01215031098B819C81FC0131832083B1
:100A80008B819C81FC0180819181FC0110828B8192
:100A90009C81FC01808191819C01215031098B81D5
:100AA0009C81FC01318320838B819C81FC018081AE
:100AB0009181FC0110828B819C81FC01808191815C
:100AC0009C01215031098B819C81FC013183208361
:100AD0008B819C81FC0180819181FC0110828B8142
:100AE0009C81FC01808191819C01215031098B8185
:100AF0009C81FC01318320838B819C81FC0180815E
:100B00009181FC0110828B819C81FC01808191810B
:100B10009C01215031098B819C81FC013183208310
:100B20008B819C81FC0180819181FC0110828B81F1
:100B30009C81FC01808191819C01215031098B8134
:100B40009C81FC01318320838B819C81FC0180810D
:100B50009181FC0110828B819C81FC0180819181BB
:100B60009C01215031098B819C81FC0131832083C0
:100B70008B819C81FC0180819181FC0110828B81A1
:100B80009C81FC01808191819C01215031098B81E4
:100B90009C81FC01318320838B819C81FC018081BD
:100BA0009181FC0110828B819C81FC01808191816B
:100BB0009C01215031098B819C81FC013183208370
:100BC0008B819C81FC0180819181FC0110828B8151
:100BD0009C81FC01808191819C01215031098B8194
:100BE0009C81FC013183208300002C960FB6F89481
:100BF000DEBF0FBECDBFDF91CF911F910F91089542
:100C00001F920F920FB60F9211242F933F938F9341
:100C10009F93EF93FF93CF93DF93CDB7DEB78BE234
:100C200090E0FC0120818BE290E0277FFC01208393
:100C3000F8949091010180910001981709F442C045
:100C40008091040190910501FC0180819181909334
:100C5000DA028093D90280910201909103010097FA
:100C6000C1F0EDB7FEB7E093D702F093D8028091C0
:100C70000101882F90E0880F991F89569D4FFC0134
:100C8000808191812091D7023091D802FC0131837B
:100C9000208380910401909105019093030180933A
:100CA00002018091040190910501FC0180819181F4
:100CB0009093D8028093D702A091D902B091DA0222
:100CC000ADBFBEBF78940000DF91CF91FF91EF914F
:100CD0009F918F913F912F910F900FBE0F901F907A
:100CE00018951F920F920FB60F9211242F933F93D6
:100CF0004F935F936F937F938F939F93AF93BF9324
:100D0000EF93FF93CF93DF93CDB7DEB784E890E006
:100D100021EC3FEFFC01318320830E9408020E94F6
:100D200027040E9464020E9430040000DF91CF91EA
:100D3000FF91EF91BF91AF919F918F917F916F91B3
:100D40005F914F913F912F910F900FBE0F901F9089
:100D50001895CF93DF93CDB7DEB785EC90E0FC011B
:100D6000108284EC90E020E1FC01208380EC90E094
:100D7000FC01208180EC90E02260FC01208381EC6A
:100D800090E028E1FC01208382EC90E026E0FC0169
:100D900020830000DF91CF910895CF93DF930F92CE
:100DA000CDB7DEB78983000080EC90E0FC01808144
:100DB000882F90E0807299270097B1F386EC90E03D
:100DC0002981FC01208300000F90DF91CF910895CD
:100DD000CF93DF9300D000D0CDB7DEB79C838B8359
:100DE0001A8219820FC089819A812B813C81820FDE
:100DF000931FFC0180810E94CD0689819A81019612
:100E00009A83898389819A812B813C81820F931FE8
:100E1000FC018081811539F7000000000F900F90D0
:100E20000F900F90DF91CF910895992778E0880F68
:100E3000991F961708F0961B881F7A95C9F7809519
:100E40000895AA27992329F4A85F982B11F480E12B
:100E50000895903118F4AD5F9295A395990FE8F736
:100E60008A2F992708950E94670708F481E0089562
:100E70000E94930788F09F5798F0B92F9927B75190
:100E8000B0F0E1F0660F771F881F991F1AF0BA952E
:100E9000C9F714C0B13091F00E94AD07B1E00895D8
:100EA0000C94AD07672F782F8827B85F39F0B93FCA
:100EB000CCF3869577956795B395D9F73EF49095E1
:100EC0008095709561957F4F8F4F9F4F0895990F33
:100ED0000008550FAA0BE0E8FEEF16161706E80704
:100EE000F907C0F012161306E407F50798F0621B25
:100EF000730B840B950B39F40A2661F0232B242BFA
:100F0000252B21F408950A2609F4A140A6958FEF18
:100F1000811D811D089557FD9058440F551F59F0AC
:100F20005F3F71F04795880F97FB991F61F09F3FD6
:100F300079F087950895121613061406551FF2CFFF
:100F40004695F1DF08C0161617061806991FF1CF4F
:100F500086957105610508940895E894BB27662776
:100F60007727CB0197F908950E94670708F48FEF60
:100F700008950E94CC070C943D080E942F0838F079
:100F80000E94360820F0952311F00C9426080C944A
:100F90002C0811240C94AE070E948B0770F3959FC8
:100FA000C1F3950F50E0551F629FF001729FBB2760
:100FB000F00DB11D639FAA27F00DB11DAA1F649FFC
:100FC0006627B00DA11D661F829F2227B00DA11DAF
:100FD000621F739FB00DA11D621F839FA00D611D35
:100FE000221F749F3327A00D611D231F849F600D56
:100FF000211D822F762F6A2F11249F5750409AF07F
:10100000F1F088234AF0EE0FFF1FBB1F661F771F0A
:10101000881F91505040A9F79E3F510580F00C94D5
:1010200026080C94AE075F3FE4F3983ED4F3869510
:1010300077956795B795F795E7959F5FC1F7FE2B75
:10104000880F911D9695879597F9089597F99F6751
:1010500080E870E060E008959FEF80EC0895002440
:101060000A941616170618060906089500240A940D
:1010700012161306140605060895092E0394000C93
:1010800011F4882352F0BB0F40F4BF2B11F460FF22
:1010900004C06F5F7F4F8F4F9F4F0895F894FFCF2D
:0210A000FFFF50
:00000001FF
