:100000000C9434000C9451000C9467060C9451002D
:100010000C9451000C9451000C9451000C9451001C
:100020000C9451000C9451000C9451000C9451000C
:100030000C9451000C94D8060C9451000C9451006F
:100040000C9451000C9451000C9451000C945100EC
:100050000C9451000C9451000C9451000C945100DC
:100060000C9451000C94510011241FBECFEFD8E026
:10007000DEBFCDBF11E0A0E0B1E0E6EFF5E102C0E8
:1000800005900D92A230B107D9F723E0A2E0B1E0CC
:1000900001C01D92A130B207E1F70E946C030C94DD
:1000A000F90A0C940000CF93DF93CDB7DEB70000C0
:1000B000FECFCF93DF930F92CDB7DEB789838981CF
:1000C000282F30E080E090E8AC0102C056954795BB
:1000D0002A95E2F79A018091870190918801822BFD
:1000E000932B909388018093870100000F90DF91FC
:1000F000CF910895CF93DF930F92CDB7DEB7898369
:100100008981282F30E080E090E802C0969587959D
:100110002A95E2F79C012095309580918701909176
:1001200088018223932390938801809387010000A4
:100130000F90DF91CF910895CF93DF930F92CDB7BA
:10014000DEB789838981282F30E080E090E8AC0118
:1001500002C0569547952A95E2F79A01809187014A
:10016000909188018223932321E0009709F420E0F5
:10017000822F0F90DF91CF910895EF92FF920F930E
:100180001F93CF93DF93CDB7DEB712E3E12EF12CAF
:1001900000E010E029E831E043E550E06FE08BEB50
:1001A00091E00E94AF01109203011092020110929F
:1001B0000501109204010E94D10480E090E0DF91DB
:1001C000CF911F910F91FF90EF900895CF93DF9300
:1001D0000F92CDB7DEB7198206C089810E945900FF
:1001E00089818F5F89838091860199819817A8F30F
:1001F00080918601682F86E091E00E94A0040E9411
:100200008E040E9464020E94970400000F90DF9108
:10021000CF910895CF93DF9300D000D0CDB7DEB754
:1002200069837A838B839C830E948E0420910201D0
:100230003091030189819A81AB81BC81F90182836C
:100240009383A483B583809100010E947A000E9469
:1002500064020E94970400000F900F900F900F907F
:10026000DF91CF910895CF93DF9300D000D00F920C
:10027000CDB7DEB79D838C8380918601882F90E077
:10028000880F991F8A5F9E4F2C813D81FC0131832D
:10029000208380918601898354C08981082E000CB7
:1002A000990B880F991F8A5F9E4FFC018081918175
:1002B000FC0126818981082E000C990B0197880F7B
:1002C000991F8A5F9E4FFC0180819181FC0186818C
:1002D0002817A0F58981082E000C990B880F991F0B
:1002E0008A5F9E4FFC01808191819B838A838981F3
:1002F000082E000C990B9C01215031098981082E90
:10030000000C990B220F331F2A5F3E4FF901208109
:100310003181880F991F8A5F9E4FFC0131832083B2
:100320008981082E000C990B0197880F991F8A5F0D
:100330009E4F2A813B81FC0131832083898181503A
:100340008983898181300CF0A8CF000000000F90D4
:100350000F900F900F900F90DF91CF910895EF9233
:10036000FF920F931F93CF93DF93CDB7DEB72B97F9
:100370000FB6F894DEBF0FBECDBF9A8389836B831F
:100380005D834C833F832E83E886F9860A871B872B
:1003900080918601803219F481E090E02CC0E981DF
:1003A000FA8188859985AA85BB854E815F816C819C
:1003B0007D818C019D01CF010E94120589819A8166
:1003C0002B81FC0126838B81882F90E09C01285B88
:1003D0003E4FF90120812F5F885B9E4FFC012083F7
:1003E00089819A810E943301809186018F5F809379
:1003F000860180E090E02B960FB6F894DEBF0FBE2A
:10040000CDBFDF91CF911F910F91FF90EF90089595
:10041000CF93DF930F92CDB7DEB7198243C08981A6
:10042000882F90E0880F991F8A5F9E4FFC01808182
:100430009181FC0182819381A481B5810097A105FE
:10044000B10569F18981882F90E0880F991F8A5F33
:100450009E4FFC0120813181F90182819381A48129
:10046000B5810197A109B109F90182839383A4831E
:10047000B5838981882F90E0880F991F8A5F9E4FEE
:10048000FC0180819181FC0182819381A481B581ED
:100490000097A105B10519F489810E94590089814D
:1004A0008F5F89838981282F30E080918601882F92
:1004B00090E00197281739070CF4B1CF0000000035
:1004C0000F90DF91CF910895CF93DF9300D000D0AC
:1004D00000D00F92CDB7DEB780918701909188014F
:1004E0000E94CC098D838D81282F30E08091860178
:1004F000882F90E0019728173907C1F48D81882F44
:1005000090E0880F991F8A5F9E4FFC018081918146
:100510009093050180930401809100018093010173
:100520008D81809300010E947D0472C019828FEF3B
:100530008A838FEF8B838D818C834DC08C81882F34
:1005400090E0880F991F8A5F9E4FFC018081918106
:10055000FC0186819A81981779F08C81882F90E030
:10056000880F991F8A5F9E4FFC0180819181FC0159
:1005700086818A838C818B838A81882F90E0895938
:100580009E4FFC0180818E839B818E81890F8F839A
:100590008E818F5F8E838A81882F90E0885B9E4F4B
:1005A000FC0190818A81282F30E08E81692F0E9482
:1005B000AC09892F482FC90189599E4FFC014083FE
:1005C0008F810E949C00811519F08F81898309C059
:1005D0008C818F5F8C83809186019C81981708F4B1
:1005E000ADCF8981882F90E0880F991F8A5F9E4F39
:1005F000FC01808191819093050180930401809199
:100600000001809301018981809300010E947D0493
:1006100027960FB6F894DEBF0FBECDBFDF91CF9106
:100620000895CF93DF930F92CDB7DEB78AE0898329
:1006300060ED77E080E090E00E940A01CE01019633
:10064000BC0183EC91E00E94270885E290E0FC0168
:10065000308185E290E020E12327FC012083E8CF70
:10066000CF93DF9300D000D0CDB7DEB78AE090E023
:100670009A83898368EE73E080E090E00E940A012B
:1006800083EC91E00E948E089C838B838B819C81FC
:10069000FC0180818A3071F785E290E0FC013081B5
:1006A00085E290E028E02327FC012083E3CFCF936D
:1006B000DF93CDB7DEB785E290E0FC01308185E2C3
:1006C00090E024E02327FC01208364EF71E080E0C8
:1006D00090E00E940A01EFCFEF92FF920F931F93D9
:1006E000CF93DF93CDB7DEB76D970FB6F894DEBF2B
:1006F0000FBECDBFF89484E290E0FC01208184E23B
:1007000090E02C63FC0120830E94BD0010E4E12EE8
:10071000F12C00E010E028EE31E041E153E061E02F
:1007200088E292E00E94AF0110E4E12EF12C00E09B
:1007300010E02FE232E040E353E061E08FE692E028
:100740000E94AF010E9441048093C201CE010F9626
:100750004AE050E062ED71E00E94E3078FE0FE01A5
:100760003F96A3ECB1E001900D928A95E1F781E00C
:1007700090E00E94F4089093E7018093E6010E94C4
:10078000E600789480E090E0A8ECB2E489839A8354
:10079000AB83BC8320E030E04AE755E469817A818D
:1007A0008B819C810E94640ADC01CB018D839E8336
:1007B000AF83B88720E030E040E85FE36D817E8161
:1007C0008F8198850E94DE0981152CF481E090E0EC
:1007D0009A87898740C020E03FEF4FE757E46D815B
:1007E0007E818F8198850E945F0A813054F120E0DC
:1007F00030E040E251E469817A818B819C810E94E2
:10080000640ADC01CB01BC01CD010E94E309DC01DB
:10081000CB019A87898710C080E991E09C878B87FC
:100820008B859C850197F1F79C878B8700008985D4
:100830009A8501979A87898789859A85009761F7B4
:1008400015C06D817E818F8198850E94E309DC014E
:10085000CB019A87898789859A859E878D878D8523
:100860009E850197F1F79E878D87000085E290E0D5
:10087000FC01308185E290E020E22327FC01208307
:1008800081CFCF93DF930F92CDB7DEB719828981E5
:100890000F90DF91CF910895CF93DF9300D0CDB724
:1008A000DEB79A83898306C061E070E080E090E063
:1008B0000E940A0189819A8141E060E00E94B307A9
:1008C000982F81E08927811579F7000000000F90AB
:1008D0000F90DF91CF910895CF93DF9300D0CDB7E4
:1008E000DEB79A83898389819A81FC011082000096
:1008F0000F900F90DF91CF910895CF93DF93CDB7F5
:10090000DEB78BE290E0FC0120818BE290E0286072
:10091000FC0120830000DF91CF910895CF93DF93F6
:10092000CDB7DEB7F8940000DF91CF910895CF9353
:10093000DF93CDB7DEB778940000DF91CF910895B3
:10094000CF93DF9300D000D0CDB7DEB79B838A83EF
:100950006C83198219C08981882F90E0880F991FB4
:100960002A813B81820F931FFC0120813181898183
:10097000882F90E0880F991F83549D4FFC0131838D
:10098000208389818F5F898399818C81981718F3DF
:10099000000000000F900F900F900F90DF91CF910B
:1009A0000895CF93DF93CDB7DEB784E890E021ECD4
:1009B0003FEFFC013183208381E890E024E0FC01DB
:1009C000208380E890E0FC0110828FE690E021E037
:1009D000FC0120838FE590E0FC0120818FE590E011
:1009E0002068FC01208389E690E0FC01208189E6F3
:1009F00090E02C60FC0120838DE390E0FC012081DD
:100A00008DE390E02260FC0120838AE290E0FC010B
:100A100020818AE290E02860FC0120830000DF91C1
:100A2000CF9108950F931F93CF93DF93CDB7DEB788
:100A30002C970FB6F894DEBF0FBECDBF9C838B837F
:100A40007E836D8358874F8309871A872B873C875E
:100A50008F819885AC01990F660B770B89859A85F4
:100A6000AB85BC85840F951FA61FB71F0197A109F1
:100A7000B109689412F8B695A7959795879516943D
:100A8000D1F7880F991F880F991F880F991F9C0114
:100A90008B819C81FC01318320838D819E819A838F
:100AA00089838B819C81FC01808191812981FC015A
:100AB00020838B819C81FC01808191819C0121504C
:100AC00031098B819C81FC013183208389819A814A
:100AD000292F33278B819C81FC0180819181FC012E
:100AE00020838B819C81FC01808191819C0121501C
:100AF00031098B819C81FC01318320838B819C8116
:100B0000FC0180819181FC0110828B819C81FC0120
:100B1000808191819C01215031098B819C81FC0154
:100B2000318320838B819C81FC018081918120E82D
:100B3000FC0120838B819C81FC01808191819C013F
:100B4000215031098B819C81FC01318320838B8171
:100B50009C81FC0180819181FC0110828B819C81B0
:100B6000FC01808191819C01215031098B819C8104
:100B7000FC01318320838B819C81FC0180819181E8
:100B8000FC0110828B819C81FC01808191819C0100
:100B9000215031098B819C81FC01318320838B8121
:100BA0009C81FC0180819181FC0110828B819C8160
:100BB000FC01808191819C01215031098B819C81B4
:100BC000FC01318320838B819C81FC018081918198
:100BD000FC0110828B819C81FC01808191819C01B0
:100BE000215031098B819C81FC01318320838B81D1
:100BF0009C81FC0180819181FC0110828B819C8110
:100C0000FC01808191819C01215031098B819C8163
:100C1000FC01318320838B819C81FC018081918147
:100C2000FC0110828B819C81FC01808191819C015F
:100C3000215031098B819C81FC01318320838B8180
:100C40009C81FC0180819181FC0110828B819C81BF
:100C5000FC01808191819C01215031098B819C8113
:100C6000FC01318320838B819C81FC0180819181F7
:100C7000FC0110828B819C81FC01808191819C010F
:100C8000215031098B819C81FC01318320838B8130
:100C90009C81FC0180819181FC0110828B819C816F
:100CA000FC01808191819C01215031098B819C81C3
:100CB000FC013183208300002C960FB6F894DEBF30
:100CC0000FBECDBFDF91CF911F910F9108951F925D
:100CD0000F920FB60F9211242F933F938F939F93F0
:100CE000EF93FF93CF93DF93CDB7DEB78BE290E026
:100CF000FC0120818BE290E0277FFC012083F894A7
:100D00009091010180910001981709F442C08091EF
:100D1000040190910501FC01808191819093000371
:100D20008093FF0280910201909103010097C1F02E
:100D3000EDB7FEB7E093FD02F093FE028091010152
:100D4000882F90E0880F991F83549D4FFC0180816C
:100D500091812091FD023091FE02FC0131832083BC
:100D60008091040190910501909303018093020109
:100D70008091040190910501FC0180819181909303
:100D8000FE028093FD02A091FF02B0910003ADBF6F
:100D9000BEBF78940000DF91CF91FF91EF919F91BA
:100DA0008F913F912F910F900FBE0F901F9018952C
:100DB0001F920F920FB60F9211242F933F934F93D0
:100DC0005F936F937F938F939F93AF93BF93EF93B3
:100DD000FF93CF93DF93CDB7DEB784E890E021ECAB
:100DE0003FEFFC01318320830E9408020E948E04A1
:100DF0000E9464020E9497040000DF91CF91FF914E
:100E0000EF91BF91AF919F918F917F916F915F9182
:100E10004F913F912F910F900FBE0F901F901895FB
:100E2000CF93DF9300D000D000D00F92CDB7DEB7C4
:100E30009D838C837F836E838FE590E0FC018081AE
:100E40008983F8948C819D81FC01808191819B83B1
:100E50008A832A813B818E819F81280F391F8C8153
:100E60009D81FC01318320838FE590E02981FC0185
:100E700020838A819B8127960FB6F894DEBF0FBE30
:100E8000CDBFDF91CF910895CF93DF9300D000D0F5
:100E900000D00F92CDB7DEB79D838C837F836E83A6
:100EA0008FE590E0FC0180818983F8948C819D819D
:100EB000FC01808191819B838A832A813B818E8181
:100EC0009F81281B390B8C819D81FC0131832083FC
:100ED0008FE590E02981FC0120838A819B81279600
:100EE0000FB6F894DEBF0FBECDBFDF91CF9108954E
:100EF000CF93DF93CDB7DEB729970FB6F894DEBF57
:100F00000FBECDBF9D838C837F836E8359874887B7
:100F10008FE590E0FC0180818983F8948C819D812C
:100F2000FC01808191819B838A832A813B818E8110
:100F30009F812817390739F48C819D81288539854F
:100F4000FC01318320838FE590E02981FC0120831F
:100F50008A819B8129960FB6F894DEBF0FBECDBF64
:100F6000DF91CF910895CF93DF9300D000D000D0D0
:100F7000CDB7DEB79C838B836D834E838FE590E086
:100F8000FC0180818A83F8948B819C81FC018081A3
:100F90009D81981741F48B819C812E81FC012083D7
:100FA00081E0898301C019828FE590E02A81FC01EC
:100FB000208389810F900F900F900F900F900F90CA
:100FC000DF91CF910895CF93DF93CDB7DEB76597CB
:100FD0000FB6F894DEBF0FBECDBF998B888B7B8B8D
:100FE0006A8B5D8B4C8B8A899B899A8389838C89D8
:100FF0009D899C838B831E821D8218861F821A8680
:10100000198680E090E00E94F4089C878B878C8989
:101010009D890E94F4089E878D870E9441048F87D6
:10102000888999894FE09E012F5F3F4FF901DC01CC
:1010300001900D924A95E1F78889998965960FB6D6
:10104000F894DEBF0FBECDBFDF91CF910895CF934F
:10105000DF9300D000D0CDB7DEB79A8389837C833D
:101060006B8389819A810C960E94090989819A81F2
:101070000E960E944C0489819A81FC012081318165
:1010800089819A81FC0184819581880F991F820F43
:10109000931F2B813C81FC013183208389819A81BC
:1010A000FC01848195819C012F5F3F4F89819A814A
:1010B000FC013583248389819A81FC014481558117
:1010C00089819A81FC0122813381CA01B9010E9480
:1010D000B8099C0189819A81FC0135832483898127
:1010E0009A81FC01808591859C012F5F3F4F89810A
:1010F0009A81FC013187208789819A810E960E940E
:101100006C0489819A810A960E942D0980E00F90D3
:101110000F900F900F90DF91CF910895CF93DF93B1
:1011200000D000D0CDB7DEB79C838B838B819C81B0
:101130000A960E9409098B819C810E960E944C049C
:101140008B819C81FC01208131818B819C81FC0100
:1011500086819781880F991F820F931FFC018081E0
:1011600091819A8389838B819C81FC0186819781FF
:101170009C012F5F3F4F8B819C81FC01378326832D
:101180008B819C81FC01468157818B819C81FC0174
:1011900022813381CA01B9010E94B8099C018B8167
:1011A0009C81FC01378326838B819C81FC01808597
:1011B00091859C01215031098B819C81FC013187F3
:1011C00020878B819C810E960E946C048B819C8170
:1011D0000C960E942D0989819A810F900F900F9093
:1011E0000F90DF91CF910895CF93DF9300D000D07F
:1011F000CDB7DEB79C838B838B819C819A83898357
:1012000089819A810F900F900F900F90DF91CF916D
:101210000895CF93DF9300D0CDB7DEB79A8389834B
:1012200006C061E070E080E090E00E940A018981E0
:101230009A8140E050E060E070E00E9478070097FB
:1012400081F389819A8161E070E00E944407000087
:101250000F900F90DF91CF910895CF93DF9300D03F
:10126000CDB7DEB79A83898389819A8161E070E086
:101270000E94100700000F900F90DF91CF9108950A
:10128000CF93DF93CDB7DEB785EC90E0FC01108201
:1012900084EC90E020E1FC01208380EC90E0FC01F4
:1012A000208180EC90E02260FC01208381EC90E0C2
:1012B00028E1FC01208382EC90E026E0FC01208301
:1012C0000000DF91CF910895CF93DF930F92CDB7B8
:1012D000DEB78983000080EC90E0FC018081882FDC
:1012E00090E0807299270097B1F386EC90E0298115
:1012F000FC01208300000F90DF91CF910895CF93E0
:10130000DF9300D000D0CDB7DEB79C838B831A82E9
:1013100019820FC089819A812B813C81820F931F92
:10132000FC0180810E94640989819A8101969A83D7
:10133000898389819A812B813C81820F931FFC01D3
:101340008081811539F7000000000F900F900F90F9
:101350000F90DF91CF910895992778E0880F991F1A
:10136000961708F0961B881F7A95C9F780950895FF
:10137000AA1BBB1B51E107C0AA1FBB1FA617B707BB
:1013800010F0A61BB70B881F991F5A95A9F78095D7
:101390009095BC01CD010895AA27992329F4A85F4F
:1013A000982B11F480E10895903118F4AD5F929577
:1013B000A395990FE8F78A2F992708950E94120A9A
:1013C00008F481E008950E943E0A88F09F5798F043
:1013D000B92F9927B751B0F0E1F0660F771F881F3A
:1013E000991F1AF0BA95C9F714C0B13091F00E9454
:1013F000580AB1E008950C94580A672F782F88276F
:10140000B85F39F0B93FCCF3869577956795B3957A
:10141000D9F73EF490958095709561957F4F8F4FE9
:101420009F4F0895990F0008550FAA0BE0E8FEEFB3
:1014300016161706E807F907C0F012161306E40798
:10144000F50798F0621B730B840B950B39F40A2691
:1014500061F0232B242B252B21F408950A2609F46F
:10146000A140A6958FEF811D811D089557FD9058CD
:10147000440F551F59F05F3F71F04795880F97FB58
:10148000991F61F09F3F79F0879508951216130612
:101490001406551FF2CF4695F1DF08C01616170641
:1014A0001806991FF1CF8695710561050894089576
:1014B000E894BB2766277727CB0197F908950E9408
:1014C000120A08F48FEF08950E94770A0C94E80A34
:1014D0000E94DA0A38F00E94E10A20F0952311F008
:1014E0000C94D10A0C94D70A11240C94590A0E9426
:1014F000360A70F3959FC1F3950F50E0551F629F18
:10150000F001729FBB27F00DB11D639FAA27F00D5C
:10151000B11DAA1F649F6627B00DA11D661F829F83
:101520002227B00DA11D621F739FB00DA11D621F68
:10153000839FA00D611D221F749F3327A00D611D85
:10154000231F849F600D211D822F762F6A2F112467
:101550009F5750409AF0F1F088234AF0EE0FFF1F9A
:10156000BB1F661F771F881F91505040A9F79E3FF1
:10157000510580F00C94D10A0C94590A5F3FE4F3B2
:10158000983ED4F3869577956795B795F795E79547
:101590009F5FC1F7FE2B880F911D9695879597F950
:1015A000089597F99F6780E870E060E008959FEFE5
:1015B00080EC089500240A941616170618060906EA
:1015C000089500240A9412161306140605060895B9
:1015D000092E0394000C11F4882352F0BB0F40F441
:1015E000BF2B11F460FF04C06F5F7F4F8F4F9F4F81
:0615F0000895F894FFCFFE
:0215F600FFFFF5
:00000001FF
