:100000000C9434000C9446000C9446000C9446006A
:100010000C9446000C9446000C9446000C94460048
:100020000C9446000C9446000C9446000C94460038
:100030000C9446000C9448000C9446000C94460026
:100040000C9446000C9446000C9446000C94460018
:100050000C9446000C9446000C9446000C94460008
:100060000C9446000C94460011241FBECFEFD8E03C
:10007000DEBFCDBF21E0A0E0B1E001C01D92A43001
:10008000B207E1F70E94B1000C94F8020C94000052
:100090001F920F920FB60F9211240F931F932F935D
:1000A0003F934F935F936F937F938F939F93AF9300
:1000B000BF93EF93FF93CF93DF93CDB7DEB78091DC
:1000C000000190910101A0910201B09103010196FC
:1000D000A11DB11D8093000190930101A093020125
:1000E000B09303018091000190910101A091020160
:1000F000B091030108E813E120E030E0BC01CD013C
:10010000A90198010E94BB01DC01CB010097A10568
:10011000B10551F485E290E0FC01308185E290E088
:1001200020E22327FC01208384E890E021EC3FEFCC
:10013000FC01318320830000DF91CF91FF91EF918B
:10014000BF91AF919F918F917F916F915F914F91EF
:100150003F912F911F910F910F900FBE0F901F9005
:100160001895CF93DF93CDB7DEB72E970FB6F894DF
:10017000DEBF0FBECDBF84E290E0FC01208184E2AF
:1001800090E02062FC01208384E890E021EC3FEFC6
:10019000FC013183208381E890E024E0FC0120838E
:1001A00080E890E0FC0110828FE690E021E0FC0105
:1001B0002083789480E090E0AAE7B4E489839A836E
:1001C000AB83BC8320E030E04AE755E469817A8163
:1001D0008B819C810E946302DC01CB018D839E8315
:1001E000AF83B88720E030E040E85FE36D817E8137
:1001F0008F8198850E94DD0181152CF481E090E0CB
:100200009A87898740C020E03FEF4FE757E46D8130
:100210007E818F8198850E945E02813054F120E0BA
:1002200030E040E251E469817A818B819C810E94B7
:100230006302DC01CB01BC01CD010E94E201DC01C3
:10024000CB019A87898710C080E991E09C878B87D2
:100250008B859C850197F1F79C878B8700008985AA
:100260009A8501979A87898789859A85009761F78A
:1002700015C06D817E818F8198850E94E201DC012D
:10028000CB019A87898789859A859E878D878D85F9
:100290009E850197F1F79E878D8700008BCFCF93C6
:1002A000DF93CDB7DEB785EC90E0FC01108284ECE3
:1002B00090E020E1FC01208380EC90E0FC012081B3
:1002C00080EC90E02260FC01208381EC90E028E14A
:1002D000FC01208382EC90E026E0FC0120830000FA
:1002E000DF91CF910895CF93DF930F92CDB7DEB713
:1002F0008983000080EC90E0FC018081882F90E0F1
:10030000807299270097B1F386EC90E02981FC0177
:10031000208300000F90DF91CF910895CF93DF935A
:1003200000D000D0CDB7DEB79C838B831A821982B0
:100330000FC089819A812B813C81820F931FFC0120
:1003400080810E94730189819A8101969A838983B1
:1003500089819A812B813C81820F931FFC018081CE
:10036000811539F7000000000F900F900F900F904B
:10037000DF91CF910895A1E21A2EAA1BBB1BFD01AC
:100380000DC0AA1FBB1FEE1FFF1FA217B307E40774
:10039000F50720F0A21BB30BE40BF50B661F771FCC
:1003A000881F991F1A9469F76095709580959095AC
:1003B0009B01AC01BD01CF0108950E94110208F418
:1003C00081E008950E943D0288F09F5798F0B92F70
:1003D0009927B751B0F0E1F0660F771F881F991F7A
:1003E0001AF0BA95C9F714C0B13091F00E945702C3
:1003F000B1E008950C945702672F782F8827B85FD3
:1004000039F0B93FCCF3869577956795B395D9F7D1
:100410003EF490958095709561957F4F8F4F9F4FDB
:100420000895990F0008550FAA0BE0E8FEEF161685
:100430001706E807F907C0F012161306E407F507D8
:1004400098F0621B730B840B950B39F40A2661F04C
:10045000232B242B252B21F408950A2609F4A140EF
:10046000A6958FEF811D811D089557FD9058440F6B
:10047000551F59F05F3F71F04795880F97FB991F03
:1004800061F09F3F79F087950895121613061406C0
:10049000551FF2CF4695F1DF08C01616170618064D
:1004A000991FF1CF86957105610508940895E89428
:1004B000BB2766277727CB0197F908950E94110281
:1004C00008F48FEF08950E9476020C94E7020E94D0
:1004D000D90238F00E94E00220F0952311F00C942C
:1004E000D0020C94D60211240C9458020E943502BA
:1004F00070F3959FC1F3950F50E0551F629FF00177
:10050000729FBB27F00DB11D639FAA27F00DB11D8F
:10051000AA1F649F6627B00DA11D661F829F222718
:10052000B00DA11D621F739FB00DA11D621F839F9F
:10053000A00D611D221F749F3327A00D611D231F75
:10054000849F600D211D822F762F6A2F11249F57C3
:1005500050409AF0F1F088234AF0EE0FFF1FBB1FC6
:10056000661F771F881F91505040A9F79E3F510585
:1005700080F00C94D0020C9458025F3FE4F3983E54
:10058000D4F3869577956795B795F795E7959F5F2F
:10059000C1F7FE2B880F911D9695879597F90895C1
:1005A00097F99F6780E870E060E008959FEF80EC26
:1005B000089500240A9416161706180609060895C9
:1005C00000240A9412161306140605060895092E2F
:1005D0000394000C11F4882352F0BB0F40F4BF2B9E
:1005E00011F460FF04C06F5F7F4F8F4F9F4F0895DE
:0405F000F894FFCFAD
:00000001FF
