:100000000C9434000C9446000C9446000C9446006A
:100010000C9446000C9446000C9446000C94460048
:100020000C9446000C9446000C9446000C94460038
:100030000C9446000C946A010C9446000C94460003
:100040000C9446000C9446000C9446000C94460018
:100050000C9446000C9446000C9446000C94460008
:100060000C9446000C94460011241FBECFEFD8E03C
:10007000DEBFCDBF21E0A0E0B1E001C01D92A239FA
:10008000B207E1F70E9401020C9477050C9400007E
:10009000CF93DF93CDB7DEB72E970FB6F894DEBFC0
:1000A0000FBECDBF85E290E0FC01308185E290E09B
:1000B00020E12327FC01208380E090E0A8E4B4E461
:1000C00089839A83AB83BC8320E030E04AE755E420
:1000D00069817A818B819C810E94E204DC01CB01E1
:1000E0008D839E83AF83B88720E030E040E85FE3F4
:1000F0006D817E818F8198850E945C0481152CF42E
:1001000081E090E09A87898740C020E03FEF4FE789
:1001100057E46D817E818F8198850E94DD04813056
:1001200054F120E030E040E251E469817A818B8132
:100130009C810E94E204DC01CB01BC01CD010E9444
:100140006104DC01CB019A87898710C080E991E0C6
:100150009C878B878B859C850197F1F79C878B8784
:10016000000089859A8501979A87898789859A856C
:10017000009761F715C06D817E818F8198850E94FF
:100180006104DC01CB019A87898789859A859E87DE
:100190008D878D859E850197F1F79E878D8700005D
:1001A00081CFCF93DF93CDB7DEB72E970FB6F894FC
:1001B000DEBF0FBECDBF85E290E0FC01308185E25D
:1001C00090E028E02327FC01208380E090E0A8EC69
:1001D000B3E489839A83AB83BC8320E030E04AE7B1
:1001E00055E469817A818B819C810E94E204DC0163
:1001F000CB018D839E83AF83B88720E030E040E859
:100200005FE36D817E818F8198850E945C048115FA
:100210002CF481E090E09A87898740C020E03FEF8E
:100220004FE757E46D817E818F8198850E94DD04C0
:10023000813054F120E030E040E251E469817A817C
:100240008B819C810E94E204DC01CB01BC01CD01C9
:100250000E946104DC01CB019A87898710C080E984
:1002600091E09C878B878B859C850197F1F79C8714
:100270008B87000089859A8501979A878987898568
:100280009A85009761F715C06D817E818F81988571
:100290000E946104DC01CB019A87898789859A8550
:1002A0009E878D878D859E850197F1F79E878D8727
:1002B000000081CFCF93DF9300D0CDB7DEB78DB7ED
:1002C0009EB79A83898389819A810F900F90DF91DD
:1002D000CF9108951F920F920FB60F9211242F9372
:1002E0003F938F939F93AF93BF93EF93FF93CF93DE
:1002F000DF93CDB7DEB7F89480918E0190918F0196
:10030000A0919001B09191010196A11DB11D809322
:100310008E0190938F01A0939001B093910184E896
:1003200090E021EC3FEFFC013183208380918C0130
:1003300090918D018130910579F4809140019091E7
:10034000410190938B0180938A0182E090E0909329
:100350008D0180938C0115C080918C0190918D014D
:100360008230910571F48091820190918301909384
:100370008B0180938A0181E090E090938D018093BE
:100380008C0180918801909189010097D9F0109299
:10039000890110928801A0918801B09189010DB660
:1003A0000D920EB60D92809188019091890100976F
:1003B00049F485E290E0FC01208185E290E0246030
:1003C000FC01208380918A0190918B019093890197
:1003D00080938801A0918A01B0918B01ADBFBEBF0F
:1003E00078940000DF91CF91FF91EF91BF91AF9191
:1003F0009F918F913F912F910F900FBE0F901F9063
:100400001895CF93DF93CDB7DEB766970FB6F89404
:10041000DEBF0FBECDBFF89484E290E0FC012081E6
:1004200084E290E02C63FC01208384E890E021ECDE
:100430003FEFFC013183208381E890E024E0FC0160
:10044000208380E890E0FC0110828FE690E021E0BC
:10045000FC0120838FE391E09A83898388E490E014
:100460009C838B8389819A819C01215031093A8335
:1004700029832B81FC0120838B819C81492F552767
:1004800089819A819C01215031093A832983242F43
:10049000FC01208389819A819C01215031093A8392
:1004A0002983FC01108289819A819C0121503109A4
:1004B0003A83298320E8FC01208389819A819C0169
:1004C000215031093A832983FC01108289819A8164
:1004D0009C01215031093A832983FC0110828981D2
:1004E0009A819C01215031093A832983FC011082B1
:1004F00089819A819C01215031093A832983FC0129
:10050000108289819A819C01215031093A83298383
:10051000FC01108289819A819C01215031093A8322
:100520002983FC01108289819A819C012150310923
:100530003A832983FC01108289819A819C01215090
:1005400031093A832983FC01108289819A819C01B7
:10055000215031093A832983FC01108289819A81D3
:100560009C01215031093A832983FC011082898141
:100570009A819C01215031093A832983FC01108220
:1005800089819A81909341018093400181E891E0B3
:100590009E838D8381ED90E098878F838D819E81EE
:1005A0009C01215031093E832D832F81FC01208342
:1005B0008F819885492F55278D819E819C012150DF
:1005C00031093E832D83242FFC0120838D819E8160
:1005D0009C01215031093E832D83FC0110828D81C5
:1005E0009E819C01215031093E832D8320E8FC012E
:1005F00020838D819E819C01215031093E832D8372
:10060000FC0110828D819E819C01215031093E8325
:100610002D83FC0110828D819E819C012150310926
:100620003E832D83FC0110828D819E819C0121508F
:1006300031093E832D83FC0110828D819E819C01B6
:10064000215031093E832D83FC0110828D819E81D2
:100650009C01215031093E832D83FC0110828D8144
:100660009E819C01215031093E832D83FC01108223
:100670008D819E819C01215031093E832D83FC0197
:1006800010828D819E819C01215031093E832D83F2
:10069000FC0110828D819E819C01215031093E8395
:1006A0002D83FC0110828D819E819C012150310996
:1006B0003E832D83FC0110828D819E819093830166
:1006C00080938201109289011092880110928B010F
:1006D00010928A0181E090E090938D0180938C01CB
:1006E000789480E090E0A8ECB2E489879A87AB87A1
:1006F000BC8720E030E04AE755E469857A858B8540
:100700009C850E94E204DC01CB018D879E87AF8728
:10071000B88B20E030E040E85FE36D857E858F8513
:1007200098890E945C0481152CF481E090E09A8BFA
:10073000898B40C020E03FEF4FE757E46D857E8511
:100740008F8598890E94DD04813054F120E030E0EB
:1007500040E251E469857A858B859C850E94E2049C
:10076000DC01CB01BC01CD010E946104DC01CB01A5
:100770009A8B898B10C080E991E09C8B8B8B8B8945
:100780009C890197F1F79C8B8B8B000089899A8952
:1007900001979A8B898B89899A89009761F715C08F
:1007A0006D857E858F8598890E946104DC01CB016F
:1007B0009A8B898B89899A899E8B8D8B8D899E894D
:1007C0000197F1F79E8B8D8B000085E290E0FC0194
:1007D000308185E290E020E22327FC01208381CF55
:1007E000CF93DF93CDB7DEB785EC90E0FC011082AC
:1007F00084EC90E020E1FC01208380EC90E0FC019F
:10080000208180EC90E02260FC01208381EC90E06C
:1008100028E1FC01208382EC90E026E0FC012083AB
:100820000000DF91CF910895CF93DF930F92CDB762
:10083000DEB78983000080EC90E0FC018081882F86
:1008400090E0807299270097B1F386EC90E02981BF
:10085000FC01208300000F90DF91CF910895CF938A
:10086000DF9300D000D0CDB7DEB79C838B831A8294
:1008700019820FC089819A812B813C81820F931F3D
:10088000FC0180810E94140489819A8101969A83D7
:10089000898389819A812B813C81820F931FFC017E
:1008A0008081811539F7000000000F900F900F90A4
:1008B0000F90DF91CF9108950E94900408F481E099
:1008C00008950E94BC0488F09F5798F0B92F99278B
:1008D000B751B0F0E1F0660F771F881F991F1AF02B
:1008E000BA95C9F714C0B13091F00E94D604B1E0B6
:1008F00008950C94D604672F782F8827B85F39F0B5
:10090000B93FCCF3869577956795B395D9F73EF4C3
:1009100090958095709561957F4F8F4F9F4F08956B
:10092000990F0008550FAA0BE0E8FEEF1616170600
:10093000E807F907C0F012161306E407F50798F068
:10094000621B730B840B950B39F40A2661F0232B81
:10095000242B252B21F408950A2609F4A140A695FD
:100960008FEF811D811D089557FD9058440F551F2D
:1009700059F05F3F71F04795880F97FB991F61F021
:100980009F3F79F087950895121613061406551F98
:10099000F2CF4695F1DF08C0161617061806991F04
:1009A000F1CF86957105610508940895E894BB27F9
:1009B00066277727CB0197F908950E94900408F4E1
:1009C0008FEF08950E94F5040C9466050E94580567
:1009D00038F00E945F0520F0952311F00C944F052C
:1009E0000C94550511240C94D7040E94B40470F3A0
:1009F000959FC1F3950F50E0551F629FF001729FC4
:100A0000BB27F00DB11D639FAA27F00DB11DAA1FD2
:100A1000649F6627B00DA11D661F829F2227B00D1F
:100A2000A11D621F739FB00DA11D621F839FA00DAA
:100A3000611D221F749F3327A00D611D231F849FFA
:100A4000600D211D822F762F6A2F11249F57504051
:100A50009AF0F1F088234AF0EE0FFF1FBB1F661FCC
:100A6000771F881F91505040A9F79E3F510580F095
:100A70000C944F050C94D7045F3FE4F3983ED4F3F5
:100A8000869577956795B795F795E7959F5FC1F739
:100A9000FE2B880F911D9695879597F9089597F9E4
:100AA0009F6780E870E060E008959FEF80EC089514
:100AB00000240A941616170618060906089500243D
:100AC0000A9412161306140605060895092E0394B7
:100AD000000C11F4882352F0BB0F40F4BF2B11F42B
:100AE00060FF04C06F5F7F4F8F4F9F4F0895F89452
:020AF000FFCF36
:00000001FF
