:100000000C9434000C9451000C9451000C94510049
:100010000C9451000C9451000C9451000C9451001C
:100020000C9451000C9451000C9451000C9451000C
:100030000C9451000C9453000C9451000C945100FA
:100040000C9451000C9451000C9451000C945100EC
:100050000C9451000C9451000C9451000C945100DC
:100060000C9451000C94510011241FBECFEFD8E026
:10007000DEBFCDBF11E0A0E0B1E0E4E2F6E002C0F7
:1000800005900D92A230B107D9F721E0A2E0B1E0CE
:1000900001C01D92A630B207E1F70E94C9000C947E
:1000A00010030C9400001F920F920FB60F921124B0
:1000B0000F931F932F933F934F935F936F937F9370
:1000C0008F939F93AF93BF93EF93FF93CF93DF9360
:1000D000CDB7DEB7189584E890E021EC3FEFFC0146
:1000E000318320838091020190910301A09104014A
:1000F000B09105010196A11DB11D8093020190935D
:100100000301A0930401B093050180910201909135
:100110000301A0910401B091050108EE13E020E075
:1001200030E0BC01CD01A90198010E94D301DC019E
:10013000CB010097A105B105B1F4809100018115B3
:1001400011F02D9801C02D9A80910001882F90E028
:1001500021E0009709F420E081E08227882F90E0D9
:100160008170809300010000DF91CF91FF91EF91AA
:10017000BF91AF919F918F917F916F915F914F91BF
:100180003F912F911F910F910F900FBE0F901F90D5
:100190001895CF93DF93CDB7DEB72E970FB6F894AF
:1001A000DEBF0FBECDBF84E290E0FC01208184E27F
:1001B00090E02062FC01208384E890E021EC3FEF96
:1001C000FC013183208381E890E024E0FC0120835E
:1001D00080E890E0FC0110828FE690E021E0FC01D5
:1001E0002083789480E090E0AAE7B4E489839A833E
:1001F000AB83BC8320E030E04AE755E469817A8133
:100200008B819C810E947B02DC01CB018D839E83CC
:10021000AF83B88720E030E040E85FE36D817E8106
:100220008F8198850E94F50181152CF481E090E082
:100230009A87898740C020E03FEF4FE757E46D8100
:100240007E818F8198850E947602813054F120E072
:1002500030E040E251E469817A818B819C810E9487
:100260007B02DC01CB01BC01CD010E94FA01DC0163
:10027000CB019A87898710C080E991E09C878B87A2
:100280008B859C850197F1F79C878B87000089857A
:100290009A8501979A87898789859A85009761F75A
:1002A00015C06D817E818F8198850E94FA01DC01E5
:1002B000CB019A87898789859A859E878D878D85C9
:1002C0009E850197F1F79E878D8700008BCFCF9396
:1002D000DF93CDB7DEB785EC90E0FC01108284ECB3
:1002E00090E020E1FC01208380EC90E0FC01208183
:1002F00080EC90E02260FC01208381EC90E028E11A
:10030000FC01208382EC90E026E0FC0120830000C9
:10031000DF91CF910895CF93DF930F92CDB7DEB7E2
:100320008983000080EC90E0FC018081882F90E0C0
:10033000807299270097B1F386EC90E02981FC0147
:10034000208300000F90DF91CF910895CF93DF932A
:1003500000D000D0CDB7DEB79C838B831A82198280
:100360000FC089819A812B813C81820F931FFC01F0
:1003700080810E948B0189819A8101969A83898369
:1003800089819A812B813C81820F931FFC0180819E
:10039000811539F7000000000F900F900F900F901B
:1003A000DF91CF910895A1E21A2EAA1BBB1BFD017C
:1003B0000DC0AA1FBB1FEE1FFF1FA217B307E40744
:1003C000F50720F0A21BB30BE40BF50B661F771F9C
:1003D000881F991F1A9469F760957095809590957C
:1003E0009B01AC01BD01CF0108950E94290208F4D0
:1003F00081E008950E94550288F09F5798F0B92F28
:100400009927B751B0F0E1F0660F771F881F991F49
:100410001AF0BA95C9F714C0B13091F00E946F027A
:10042000B1E008950C946F02672F782F8827B85F8A
:1004300039F0B93FCCF3869577956795B395D9F7A1
:100440003EF490958095709561957F4F8F4F9F4FAB
:100450000895990F0008550FAA0BE0E8FEEF161655
:100460001706E807F907C0F012161306E407F507A8
:1004700098F0621B730B840B950B39F40A2661F01C
:10048000232B242B252B21F408950A2609F4A140BF
:10049000A6958FEF811D811D089557FD9058440F3B
:1004A000551F59F05F3F71F04795880F97FB991FD3
:1004B00061F09F3F79F08795089512161306140690
:1004C000551FF2CF4695F1DF08C01616170618061D
:1004D000991FF1CF86957105610508940895E894F8
:1004E000BB2766277727CB0197F908950E94290239
:1004F00008F48FEF08950E948E020C94FF020E9470
:10050000F10238F00E94F80220F0952311F00C94CB
:10051000E8020C94EE0211240C9470020E944D0229
:1005200070F3959FC1F3950F50E0551F629FF00146
:10053000729FBB27F00DB11D639FAA27F00DB11D5F
:10054000AA1F649F6627B00DA11D661F829F2227E8
:10055000B00DA11D621F739FB00DA11D621F839F6F
:10056000A00D611D221F749F3327A00D611D231F45
:10057000849F600D211D822F762F6A2F11249F5793
:1005800050409AF0F1F088234AF0EE0FFF1FBB1F96
:10059000661F771F881F91505040A9F79E3F510555
:1005A00080F00C94E8020C9470025F3FE4F3983EF4
:1005B000D4F3869577956795B795F795E7959F5FFF
:1005C000C1F7FE2B880F911D9695879597F9089591
:1005D00097F99F6780E870E060E008959FEF80ECF6
:1005E000089500240A941616170618060906089599
:1005F00000240A9412161306140605060895092EFF
:100600000394000C11F4882352F0BB0F40F4BF2B6D
:1006100011F460FF04C06F5F7F4F8F4F9F4F0895AD
:04062000F894FFCF7C
:020624000100D3
:00000001FF
