:100000000C9434000C9446000C9446000C9446006A
:100010000C9446000C9446000C9446000C94460048
:100020000C9446000C9446000C9446000C94460038
:100030000C9446000C94D1000C9446000C9446009D
:100040000C9446000C9446000C9446000C94460018
:100050000C9446000C9446000C9446000C94460008
:100060000C9446000C94460011241FBECFEFD8E03C
:10007000DEBFCDBF21E0A0E0B1E001C01D92A638F7
:10008000B207E1F70E9415010C9489030C9400005B
:10009000CF93DF93CDB7DEB72E970FB6F894DEBFC0
:1000A0000FBECDBF85E290E0FC01308185E290E09B
:1000B00020E12327FC01208380E090E0A8ECB2E45B
:1000C00089839A83AB83BC8320E030E04AE755E420
:1000D00069817A818B819C810E94F402DC01CB01D1
:1000E0008D839E83AF83B88720E030E040E85FE3F4
:1000F0006D817E818F8198850E946E0281152CF41E
:1001000081E090E09A87898740C020E03FEF4FE789
:1001100057E46D817E818F8198850E94EF02813046
:1001200054F120E030E040E251E469817A818B8132
:100130009C810E94F402DC01CB01BC01CD010E9434
:100140007302DC01CB019A87898710C080E991E0B6
:100150009C878B878B859C850197F1F79C878B8784
:10016000000089859A8501979A87898789859A856C
:10017000009761F715C06D817E818F8198850E94FF
:100180007302DC01CB019A87898789859A859E87CE
:100190008D878D859E850197F1F79E878D8700005D
:1001A00081CF1F920F920FB60F9211242F938F932E
:1001B0009F93AF93BF93EF93FF93CF93DF93CDB70D
:1001C000DEB78091820190918301A0918401B0916A
:1001D00085010196A11DB11D809382019093830139
:1001E000A0938401B09385018FE690E0FC0120810B
:1001F0008FE690E02E7FFC012083A0918001B091DA
:100200008101CD91CDBFDD91DEBF18950000DF915A
:10021000CF91FF91EF91BF91AF919F918F912F91CE
:100220000F900FBE0F901F901895CF93DF93CDB70F
:10023000DEB762970FB6F894DEBF0FBECDBFF8945D
:1002400084E290E0FC01208184E290E02063FC01E4
:10025000208384E890E021EC3FEFFC013183208390
:1002600081E890E024E0FC01208380E890E0FC013C
:1002700010828FE690E021E0FC0120838FE791E07F
:100280009A83898388E490E09C838B8389819A8117
:100290009C01215031093A83298321E1FC0120830B
:1002A00089819A819C01215031093A83298322E274
:1002B000FC01208389819A819C01215031093A8374
:1002C000298323E3FC01208389819A819C012150A9
:1002D00031093A8329832B81FC0120838B819C8106
:1002E000492F552789819A819C01215031093A83F0
:1002F0002983242FFC01208389819A819093810195
:1003000080938001789480E090E0A8ECB2E48D8343
:100310009E83AF83B88720E030E04AE755E46D81E3
:100320007E818F8198850E94F402DC01CB01898750
:100330009A87AB87BC8720E030E040E85FE36985BF
:100340007A858B859C850E946E0281152CF481E054
:1003500090E09E878D8740C020E03FEF4FE757E455
:1003600069857A858B859C850E94EF02813054F1E6
:1003700020E030E040E251E46D817E818F819885FC
:100380000E94F402DC01CB01BC01CD010E9473028A
:10039000DC01CB019E878D8710C080E991E0988BAE
:1003A0008F878F8598890197F1F7988B8F87000049
:1003B0008D859E8501979E878D878D859E8500976B
:1003C00061F715C069857A858B859C850E947302CB
:1003D000DC01CB019E878D878D859E859A8B898BCD
:1003E00089899A890197F1F79A8B898B000085E2B8
:1003F00090E0FC01308185E290E020E12327FC01C0
:10040000208381CFCF93DF93CDB7DEB785EC90E02B
:10041000FC01108284EC90E020E1FC01208380EC60
:1004200090E0FC01208180EC90E02260FC012083C0
:1004300081EC90E028E1FC01208382EC90E026E052
:10044000FC0120830000DF91CF910895CF93DF93CB
:100450000F92CDB7DEB78983000080EC90E0FC01FD
:100460008081882F90E0807299270097B1F386EC05
:1004700090E02981FC01208300000F90DF91CF9153
:100480000895CF93DF9300D000D0CDB7DEB79C8323
:100490008B831A8219820FC089819A812B813C81BA
:1004A000820F931FFC0180810E94260289819A811C
:1004B00001969A83898389819A812B813C81820F5D
:1004C000931FFC018081811539F7000000000F9017
:1004D0000F900F900F90DF91CF9108950E94A2028C
:1004E00008F481E008950E94CE0288F09F5798F0AA
:1004F000B92F9927B751B0F0E1F0660F771F881F29
:10050000991F1AF0BA95C9F714C0B13091F00E9442
:10051000E802B1E008950C94E802672F782F88274D
:10052000B85F39F0B93FCCF3869577956795B39569
:10053000D9F73EF490958095709561957F4F8F4FD8
:100540009F4F0895990F0008550FAA0BE0E8FEEFA2
:1005500016161706E807F907C0F012161306E40787
:10056000F50798F0621B730B840B950B39F40A2680
:1005700061F0232B242B252B21F408950A2609F45E
:10058000A140A6958FEF811D811D089557FD9058BC
:10059000440F551F59F05F3F71F04795880F97FB47
:1005A000991F61F09F3F79F0879508951216130601
:1005B0001406551FF2CF4695F1DF08C01616170630
:1005C0001806991FF1CF8695710561050894089565
:1005D000E894BB2766277727CB0197F908950E94F7
:1005E000A20208F48FEF08950E9407030C94780389
:1005F0000E946A0338F00E94710320F0952311F0E5
:100600000C9461030C94670311240C94E9020E947A
:10061000C60270F3959FC1F3950F50E0551F629F7E
:10062000F001729FBB27F00DB11D639FAA27F00D4B
:10063000B11DAA1F649F6627B00DA11D661F829F72
:100640002227B00DA11D621F739FB00DA11D621F57
:10065000839FA00D611D221F749F3327A00D611D74
:10066000231F849F600D211D822F762F6A2F112456
:100670009F5750409AF0F1F088234AF0EE0FFF1F89
:10068000BB1F661F771F881F91505040A9F79E3FE0
:10069000510580F00C9461030C94E9025F3FE4F390
:1006A000983ED4F3869577956795B795F795E79536
:1006B0009F5FC1F7FE2B880F911D9695879597F93F
:1006C000089597F99F6780E870E060E008959FEFD4
:1006D00080EC089500240A941616170618060906D9
:1006E000089500240A9412161306140605060895A8
:1006F000092E0394000C11F4882352F0BB0F40F430
:10070000BF2B11F460FF04C06F5F7F4F8F4F9F4F6F
:060710000895F894FFCFEC
:00000001FF
